:100000000C942A000C9447000C9447000C94470071
:100010000C9447000C9447000C9447000C948B08F8
:100020000C9447000C9447000C94C1000C94EA0017
:100030000C9447000C9447000C9447000C94470024
:100040000C9447000C9447000C9447000C94470014
:100050000C94470011241FBECFE5D8E0DEBFCDBF12
:1000600010E0A0E6B0E0EAE8F3E202C005900D92ED
:10007000A03BB107D9F715E0A0EBB0E001C01D929D
:10008000A137B107E1F70E9432100C94C3110C9410
:100090000000529886E880BD88E689B910BC539A62
:1000A000549A08955D9BFECF8CB908955F9BFECF57
:1000B0008CB1089520E004C05D9BFECFECB92F5FAA
:1000C000FC01E20FF11DE081EE23B1F70895AC01D0
:1000D00020E005C05F9BFECF8CB180832F5FFA01CB
:1000E000E20FF11D80818A30A9F7089583B78860F7
:1000F00083BF83B78F7B83BF83B78F7E83BF83B775
:100100008F7D83BF89B7826089BF83B7816083BFDA
:1001100083B78D7F83BF83B7846083BF089583BF18
:1001200008958CBF08959C01009751F08091B00014
:100130009091B100892B21F43093B1002093B0004D
:1001400008959C01009751F08091B2009091B30006
:10015000892B21F43093B3002093B20008958536A3
:1001600078F46FEF869FB0011124882777FD809582
:10017000982F24E630E040E050E00E9482112CBF2E
:1001800008951F920F920FB60F9211242F933F9351
:100190004F935F936F937F938F939F93AF93BF938F
:1001A000EF93FF93E091B200F091B300309709F024
:1001B0000995FF91EF91BF91AF919F918F917F91A1
:1001C0006F915F914F913F912F910F900FBE0F90C4
:1001D0001F9018951F920F920FB60F9211242F9314
:1001E0003F934F935F936F937F938F939F93AF93BF
:1001F000BF93EF93FF93E091B000F091B10030977F
:1002000009F00995FF91EF91BF91AF919F918F9167
:100210007F916F915F914F913F912F910F900FBE02
:100220000F901F9018958FB780688FBF08958FB774
:100230008F778FBF089585B78E7F85BF85B78D7FF8
:1002400085BF8BB780648BBF089508950895982F5C
:10025000862F81508E3F80F0913049F0913028F008
:10026000923039F0933041F406C06ABB089567BB01
:10027000089564BB089561BB0895382F883008F055
:1002800078C0613029F1613038F0623009F43CC047
:10029000633009F06EC053C0413059F42AB381E095
:1002A00090E002C0880F991F3A95E2F7282B2ABBED
:1002B0000895442309F05DC02AB381E090E002C0B4
:1002C000880F991F3A95E2F7809582238ABB08959B
:1002D000413059F427B381E090E002C0880F991FA4
:1002E0003A95E2F7282B27BB0895442309F041C033
:1002F00027B381E090E002C0880F991F3A95E2F79A
:100300008095822387BB0895413059F424B381E05E
:1003100090E002C0880F991F3A95E2F7282B24BB82
:100320000895442331F524B381E090E002C0880FA2
:10033000991F3A95E2F78095822384BB0895413056
:1003400059F421B381E090E002C0880F991F3A95DB
:10035000E2F7282B21BB0895442359F421B381E00F
:1003600090E002C0880F991F3A95E2F780958223AA
:1003700081BB0895982F862F81508E3F80F0913059
:1003800049F0913028F0923039F0933041F406C0B2
:100390006BBB089568BB089565BB089562BB089563
:1003A000382F883008F078C0613029F1613038F09A
:1003B000623009F43CC0633009F06EC053C0413074
:1003C00059F42BB381E090E002C0880F991F3A9551
:1003D000E2F7282B2BBB0895442309F05DC02BB313
:1003E00081E090E002C0880F991F3A95E2F780956E
:1003F00082238BBB0895413059F428B381E090E00B
:1004000002C0880F991F3A95E2F7282B28BB089560
:10041000442309F041C028B381E090E002C0880F76
:10042000991F3A95E2F78095822388BB0895413061
:1004300059F425B381E090E002C0880F991F3A95E6
:10044000E2F7282B25BB0895442331F525B381E03D
:1004500090E002C0880F991F3A95E2F780958223B9
:1004600085BB0895413059F422B381E090E002C089
:10047000880F991F3A95E2F7282B22BB0895442351
:1004800059F422B381E090E002C0880F991F3A9599
:10049000E2F78095822382BB0895FB016115710507
:1004A00091F0813049F0813028F0823039F083308A
:1004B00051F407C089B303C086B301C083B38083FE
:1004C000089580B380830895282FFA01883000F5BD
:1004D000613049F0613028F0623039F06330C1F4A6
:1004E0000EC089B303C086B301C083B390E002C0DD
:1004F000959587952A95E2F781708083089580B35A
:1005000090E002C0959587952A95E2F781708083E7
:100510000895382F8830A0F5613091F0613028F0CF
:100520006230C9F0633061F521C02BB381E090E007
:1005300002C0880F991F3A95E2F728272BBB089530
:1005400028B381E090E002C0880F991F3A95E2F746
:10055000282728BB089525B381E090E002C0880FCA
:10056000991F3A95E2F7282725BB089522B381E029
:1005700090E002C0880F991F3A95E2F7282722BB26
:100580000895582F853008F050C0842F90E08F7068
:100590009070052E02C0880F991F0A94E2F7482F29
:1005A0006130B9F0613030F0623011F1633009F040
:1005B0003CC02DC08BB32FE030E002C0220F331FB0
:1005C0005A95E2F7209528232BBB8BB3482B4BBBC6
:1005D000089588B32FE030E002C0220F331F5A95F0
:1005E000E2F72095282328BB88B3482B48BB089501
:1005F00085B32FE030E002C0220F331F5A95E2F797
:100600002095282325BB85B3482B45BB089582B38D
:100610002FE030E002C0220F331F5A95E2F72095F9
:10062000282322BB82B3482B42BB08953E9A3F98B1
:1006300030983198329A3D98379A089597B1907EC4
:1006400097B997B18F71892B87B9369A349BFECFB2
:1006500024B135B1C90108959F92AF92BF92CF9254
:10066000DF92EF92FF920F931F93DF93CF930F923E
:10067000CDB7DEB7198224E2C22EEE24FF245E013C
:100680000894A11CB11C9E2C8E2D62E040E00E94BB
:10069000D0018701000F111F000F111F0F561F4FB0
:1006A00084E0D82E8D2D62E0A5010E94640289812C
:1006B000882359F4F801C08005C08D2D62E0A501A2
:1006C0000E94640289818823C1F3D3940F5F1F4F76
:1006D000F8E0DF1639F7892D62E041E00E94D00191
:1006E0000894E11CF11C84E0E816F10461F68C2DFD
:1006F0000F90CF91DF911F910F91FF90EF90DF90BE
:10070000CF90BF90AF909F90089580E062E041E06D
:100710000E943D0181E062E041E00E943D0182E0F3
:1007200062E041E00E943D0183E062E041E00E941E
:100730003D0184E062E040E00E943D0185E062E02E
:1007400040E00E943D0186E062E040E00E943D0101
:1007500087E062E040E00E943D0184E062E041E029
:100760000E94D00185E062E041E00E94D00186E075
:1007700062E041E00E94D00187E062E041E00E9437
:10078000D00180E062E041E00E94D00181E062E0BF
:1007900041E00E94D00182E062E041E00E94D0018D
:1007A00083E062E041E00E94D00108951F93182F7A
:1007B00082E061E040E00E94D00181E061E041E040
:1007C0000E94D001412F42954F7084E060E00E946A
:1007D000C10284E061E041E00E94D00182E090E04B
:1007E0000E941F0E84E061E040E00E94D00184E09E
:1007F00060E0412F0E94C10284E061E041E00E947C
:10080000D00182E090E00E941F0E84E061E040E0B1
:100810000E94D0011F9108951F93CF93DF93EC01A5
:10082000009759F010E003C00E94D6031F5FFE013D
:10083000E10FF11D80818823B9F7DF91CF911F91DE
:100840000895AF92BF92CF92DF92EF92FF920F93F3
:100850001F93DF93CF93CDB7DEB72C970FB6F894E5
:10086000DEBF0FBECDBF6B017C0161157105810537
:100870009105E1F110E05E010894A11CB11CC501D5
:10088000810F911D9C878B87C701B6012AE030E05C
:1008900040E050E00E948211EB85FC856083C70137
:1008A000B6012AE030E040E050E00E948211C90128
:1008B000DA016C017D011F5FC114D104E104F10470
:1008C000F1F6012F0150E02EFF24E7FCF094EA0C32
:1008D000FB1C09C0F7018081805D0E94D603015096
:1008E0000894E108F10807FFF5CF03C080E30E94F8
:1008F000D6032C960FB6F894DEBF0FBECDBFCF91B6
:10090000DF911F910F91FF90EF90DF90CF90BF90FC
:10091000AF9008951F93182F82E061E040E00E949D
:10092000D00181E061E040E00E94D001412F42957A
:100930004F7084E060E00E94C10284E061E041E029
:100940000E94D00182E090E00E941F0E84E061E0EE
:1009500040E00E94D00184E060E0412F0E94C1028B
:1009600084E061E041E00E94D00182E090E00E94DA
:100970001F0E84E061E040E00E94D0011F910895C5
:10098000823068F4603158F4882329F4862F805827
:100990000E948A040895862F80540E948A04089534
:1009A0008EE190E00E941F0E84E060E041E00E9432
:1009B0003D0185E060E041E00E943D0186E060E0AD
:1009C00041E00E943D0187E060E041E00E943D017E
:1009D00081E061E041E00E943D0182E061E041E0B0
:1009E0000E943D0184E061E041E00E943D0184E01D
:1009F00060E042E00E94C10284E061E041E00E94C8
:100A0000D00182E090E00E941F0E84E061E040E0AF
:100A10000E94D00188E20E948A0481E090E00E9456
:100A20001F0E8FE00E948A0481E090E00E941F0E5A
:100A300081E00E948A0482E090E00E941F0E86E01E
:100A40000E948A040895EF92FF920F931F93FC0176
:100A50000580F681E02DE680F7808701045F1F4F57
:100A6000C8010E948A0785EE90E0B8010E942C0719
:100A700020E0E091B400F091B500D70156969C912A
:100A80008689981708F021E0822F1F910F91FF901F
:100A9000EF900895FF920F931F93CF93DF9399E008
:100AA000F92E21C0F894E091EA00F091EB00068164
:100AB0001781C8010C960E948A077894E801229653
:100AC000CE010E948A07F80196898091B6008917A5
:100AD00010F49093B6009F9DC001112483549F4F42
:100AE000BE010E942C078091E5008823D9F60E9460
:100AF000CE0B2091B7003091B800821B930B9093DE
:100B0000BA008093B90089E0F82E53C00196909303
:100B1000BC008093BB00215030403093BA0020933A
:100B2000B900892B09F03EC02091E1003091E2002C
:100B30008091E3009091E4009093E2008093E100C3
:100B40003093E4002093E3002DC00580F681E02D72
:100B5000C681D7812091BB003091BC008A819B81E6
:100B60002817390730F1F8948E010E5F1F4FC80126
:100B70000E948A078C899D89892B21F0CE010C96D1
:100B80000E948A0778949E898091B600891710F494
:100B90009093B6009F9DC001112483549F4FB801CC
:100BA0000E942C07E091E100F091E200808188230F
:100BB00061F62091B9003091BA008091BB0090910C
:100BC000BC002115310509F0A1CF9093B8008093A6
:100BD000B7009091B60029E006C0992319F410924D
:100BE000B60032C09150929FD0011124A354BF4F40
:100BF0008C91882391F39093B6001196ED91FC911E
:100C000012970280F381E02D1296FC93EE931197D8
:100C1000CD010396E817F90731F48281938112968A
:100C20009C938E9311971196ED91FC9112970680EB
:100C3000F781E02DF093B500E093B400208131817D
:100C4000CF016789F9010995DF91CF911F910F912C
:100C5000FF9008950F931F93CF93DF93EB010091C3
:100C6000BB001091BC00080F191F8091B400909137
:100C7000B50002960E948A07E091B400F091B50099
:100C8000138302838091BB009091BC00BF016E5F13
:100C90007F4F0817190728F48091E3009091E40032
:100CA00004C08091E1009091E2000E9455072097D6
:100CB00049F06091B4007091B500645F7F4FCE0140
:100CC0000E945507DF91CF911F910F910895AF9228
:100CD000BF92CF92DF92EF92FF920F931F93CF9329
:100CE000DF936C01B62EA42E8AE190E00E94F106FB
:100CF000EC01009711F48FEF59C08091B4009091EE
:100D0000B500892B21F5D093B500C093B4008DEBCD
:100D100090E00E94180786EC90E00E9418072FECE4
:100D2000E22E20E0F22EC7010E94180708ED10E025
:100D3000C8010E94180785EE90E00E941807F09203
:100D4000E200E092E1001093E4000093E300EB2C5A
:100D5000BB2011F0EE24E394198E188EEE8AAF8A30
:100D6000FE01C192D1928F01CF010E942807CE01CE
:100D70000C960E942807D987C887DB8BCA8B8AE02C
:100D800090E08E1991099D878C879E898091B6008D
:100D9000891710F49093B60089E0989FC001112440
:100DA00083549F4FB8010E942C0781E0DF91CF91BF
:100DB0001F910F91FF90EF90DF90CF90BF90AF9079
:100DC000089508951092EF001092EE00089528EE15
:100DD00033E08091EE009091EF00281B390BC901A0
:100DE00008950F931F93CF93DF938C010E94C80B3C
:100DF0008091EE009091EF009801280F391F43E099
:100E0000283E340758F48217930740F4EC01C05190
:100E1000DF4F3093EF002093EE0002C0C0E0D0E03F
:100E20000E94A40DCE01DF91CF911F910F910895E3
:100E3000FC019C012D5F3F4F328321838FEF9FEF99
:100E40009483838336832583308727831082089594
:100E5000FC01118610860895CF93DF93AC01DB016E
:100E6000EC0129813A81F9018281938113969C9347
:100E70008E93129789819A8115969C938E931497DD
:100E80000280F381E02D75836483E9017B836A83AB
:100E9000FA017283618319965C934E93189780814F
:100EA0008F5F8083DF91CF910895CF93DF939C0173
:100EB000EB01488159818FEF4F3F580721F4F90129
:100EC000A781B08510C0D901139604C012960D9069
:100ED000BC91A02D1296ED91FC9113978081918188
:100EE0004817590798F71296ED91FC911397FB83D9
:100EF000EA83D583C483BD83AC831396DC93CE93FE
:100F0000129739872887F90180818F5F8083DF916D
:100F1000CF910895CF93DF93DC011296ED91FC9170
:100F2000139714968D919C911597958384831496AD
:100F3000CD91DC911597FB83EA831896ED91FC9196
:100F40001997818192818A179B0711F4D283C183FB
:100F500019961C921E921897808181508083DF9190
:100F6000CF910895FC0191E1908322E2229383E3E3
:100F7000829362937293129280E88293129282E03B
:100F8000829383E0829384E0829385E0829386E07B
:100F9000829387E0829388E0829389E0829380E164
:100FA0008293929382E1829383E1829384E182939C
:100FB00085E1829386E1829387E1829388E182933F
:100FC00089E1829380E2829381E28293229383E299
:100FD00082934293529386E2829387E2829388E2DD
:100FE000829389E2829380E3829381E382933197B3
:100FF000CF0108951BBC89EF8ABD8BE08EBD89B7F8
:10100000806189BFA091D804B091D904CD91CDBFA2
:10101000DD91DEBFFF91EF91DF91CF91BF91AF9155
:101020009F918F917F916F915F914F913F912F9100
:101030001F910F91FF90EF90DF90CF90BF90AF90F6
:101040009F908F907F906F905F904F903F902F90E8
:101050001F900F900FBE0F90089581E0089508959E
:101060000F920FB6F8940F921F9211242F923F9275
:101070004F925F926F927F928F929F92AF92BF92A8
:10108000CF92DF92EF92FF920F931F932F933F9394
:101090004F935F936F937F938F939F93AF93BF9380
:1010A000CF93DF93EF93FF93A091D804B091D9042D
:1010B0000DB60D920EB60D920E94AC0C0E94E20B82
:1010C000A091D804B091D904CD91CDBFDD91DEBF00
:1010D000FF91EF91DF91CF91BF91AF919F918F9150
:1010E0007F916F915F914F913F912F911F910F9140
:1010F000FF90EF90DF90CF90BF90AF909F908F9038
:101100007F906F905F904F903F902F901F900F9027
:101110000FBE0F9008950E94300818950F920FB6D9
:10112000F8940F921F9211242F923F924F925F9248
:101130006F927F928F929F92AF92BF92CF92DF92E7
:10114000EF92FF920F931F932F933F934F935F93D1
:101150006F937F938F939F93AF93BF93CF93DF93BF
:10116000EF93FF93A091D804B091D9040DB60D92DE
:101170000EB60D920E94E20BA091D804B091D90452
:10118000CD91CDBFDD91DEBFFF91EF91DF91CF918A
:10119000BF91AF919F918F917F916F915F914F918F
:1011A0003F912F911F910F91FF90EF90DF90CF9083
:1011B000BF90AF909F908F907F906F905F904F9077
:1011C0003F902F901F900F900FBE0F900895FC013D
:1011D0000FB6F8940F92828D0F900FBE0895FC0108
:1011E000828D0895FC01828D90E0882309F491E0BE
:1011F000892F0895FC01928D20E0838D981709F4C2
:1012000021E0822F08950F931F938C01FC018081B0
:1012100091810E94E106C8010E94E1061F910F9191
:1012200008950F931F93CF93DF93EC01FB018A0185
:101230008A8D882381F14881598141155105A9F092
:101240008C8D2E813F81280F311D3F832E838A8113
:101250009B812817390710F05F834E834C8D6E8178
:101260007F81CF0150E00E94A4118A8D81508A8F26
:101270008D8D8F3F69F48885882361F0CE010896B3
:101280000E946D0C882331F081E0F801808303C057
:101290008F5F8D8F81E0DF91CF911F910F91089526
:1012A000CF93DF93EC01842F4C8D4423A1F188234D
:1012B000B1F48C819D8150E00E94A4118C8D2C8111
:1012C0003D81280F311D3D832C838A819B81281706
:1012D000390708F1888199819D838C831CC08E8198
:1012E0009F8150E00E94A4118C8D90E044275527E7
:1012F000481B590B8E819F81840F951F9F838E837E
:10130000288139818217930730F48A819B81840F69
:10131000951F9F838E838A8D8F5F8A8FDF91CF91F8
:1013200008950F931F93CF93DF93EC018A019A8D59
:101330008B8D981710F080E017C0CE01422F0E94CD
:1013400050098E8D8F3F69F48989882361F0CE0121
:1013500041960E946D0C882331F081E0F801808372
:1013600003C08F5F8E8F81E0DF91CF911F910F912E
:1013700008950F931F93CF93DF93EC010FB6F8946A
:101380000F928C010F5E1F4F0DC08989882369F071
:10139000C8010E946D0C882311F00E94690C8E8D8B
:1013A00081508E8F8E8D181684F38FEF8E8F0F9055
:1013B0000FBE0FB6F8940F928E01085F1F4F0DC03D
:1013C0008885882369F0C8010E946D0C882311F07C
:1013D0000E94690C8D8D81508D8F8D8D181684F330
:1013E0008FEF8D8F0F900FBEDF91CF911F910F91D7
:1013F00008957F928F929F92AF92BF92CF92DF9289
:10140000EF92FF920F931F93DF93CF9300D000D002
:101410000F92CDB7DEB78C01962E872E5D834C835D
:10142000722E91E1C92ED12CC00ED11E20E07E017A
:101430000894E11CF11C84E0A82EB12CAC0EBD1E5A
:1014400001C021E00FB6F8940F92F801828D882335
:1014500009F43EC0E680F780408151814115510575
:10146000B1F0848D9701280F311D37832683828147
:1014700093812817390710F057834683F801448D6C
:1014800066817781892D982D50E00E94A4117720E4
:1014900071F4F801828D8150828F80858823A1F0BC
:1014A000C80108960E946D0C813071F40BC0F801E0
:1014B000F782E6828189882339F0C6010E946D0C8B
:1014C000882311F00E948E080F900FBE81E04AC061
:1014D0008C819D81892B19F40F900FBE42C022236D
:1014E00019F4C7010E94240C0F900FBE0E94C80B74
:1014F0000FB6F8940F92F801858D8F3F09F4158E81
:10150000F801868D8F3F09F4168E0F900FBEC7012C
:10151000B5010E942F0C8823F9F40FB6F8940F92AE
:10152000F801828D0F900FBE882381F46C817D813C
:10153000C6010E94870DC8010E94B9090E94A40D2E
:10154000882309F07ECF0E948E087BCFC8010E94BD
:10155000B9090E94A40D75CFC8010E94B9090E9463
:10156000A40D80E00F900F900F900F900F90CF91EF
:10157000DF911F910F91FF90EF90DF90CF90BF9080
:10158000AF909F908F907F9008957F928F929F92BF
:10159000AF92BF92CF92DF92EF92FF920F931F9381
:1015A000DF93CF9300D000D00F92CDB7DEB78C0180
:1015B0006B015D834C83722E48E0E42EF12CE80E23
:1015C000F91E20E05E010894A11CB11C34E0832EBA
:1015D000912C8C0E9D1E01C021E00FB6F8940F9245
:1015E000F801928D838D9817A8F4C801B601472D94
:1015F0000E945009F8018189882341F0C801419671
:101600000E946D0C813011F40E948E080F900FBE65
:1016100081E04CC08C819D81892B19F40F900FBE05
:1016200044C0222319F4C5010E94240C0F900FBE60
:101630000E94C80B0FB6F8940F92F801858D8F3F6A
:1016400009F4158EF801868D8F3F09F4168E0F90E0
:101650000FBEC501B4010E942F0C882309F50FB6F7
:10166000F8940F92F801928D0F900FBEF801838DC0
:10167000981781F46C817D81C7010E94870DC80194
:101680000E94B9090E94A40D882309F0A5CF0E94E9
:101690008E08A2CFC8010E94B9090E94A40D9CCF58
:1016A000C8010E94B9090E94A40D80E00F900F901C
:1016B0000F900F900F90CF91DF911F910F91FF909E
:1016C000EF90DF90CF90BF90AF909F908F907F90E2
:1016D0000895AF92BF92CF92DF92EF92FF920F9355
:1016E0001F93CF93DF93B82EA62E882309F442C010
:1016F0008FE190E00E94F106EC010097D9F1EB2C0C
:10170000FF24CA2CDD24CE9C8001CF9C100DDE9CD2
:10171000100D1124C80101960E94F1069C019983C5
:101720008883009721F1080F191F1B830A831A8EE3
:101730009D838C830894E108F108EC9CC001ED9C2A
:10174000900DFC9C900D1124280F391F3F832E8390
:10175000BB8EAC8E8FEF8D8F8E8FCE0108960E9440
:101760001807CE0141960E9418079E0105C0CE01C0
:101770000E94E10620E030E0C901DF91CF911F9186
:101780000F91FF90EF90DF90CF90BF90AF900895B2
:101790008091DE048F5F8093DE0408950FB6F89485
:1017A0000F922091DC043091DD040F900FBEC9012F
:1017B00008952091DC043091DD04C90108958091E1
:1017C000E10408958091DE04882351F081E0809344
:1017D000DA0408958091DF0481508093DF0401C012
:1017E00099E0E091DF04E99FF0011124EA51FB4FF9
:1017F0008081882379F39091DF0489E0989FD0015C
:101800001124AA51BB4F1196ED91FC9112970280C1
:10181000F381E02D1296FC93EE931197CD01039680
:10182000E817F90731F48281938112969C938E9385
:1018300011971196ED91FC91129786819781909363
:10184000D9048093D8040895FC018091DB0480833F
:101850008091DC049091DD04928381830895FC01E2
:10186000DB010FB6F8940F929091DB0480819817FA
:1018700049F02091DC043091DD04818192812817A8
:10188000390718F58091DC049091DD0421813281C3
:101890004D915C911197821B930B84179507A8F4C7
:1018A0008091DC049091DD04281B390B240F351F37
:1018B0002D933C938091DB0480838091DC04909194
:1018C000DD049283818380E001C081E00F900FBE30
:1018D000089581E08093DA0408950F931F93CF93C6
:1018E000DF93FC010580F681E02D06811781E80178
:1018F0002C96CE010E948A078091DE048823A9F4E9
:10190000E8012296CE010E948A07D80156969C9142
:101910008091DF04891710F49093DF0489E0989F89
:10192000C00111248A519B4F02C086E595E0BE019B
:101930000E942C07E091D804F091D90420E0D8014E
:1019400056969C918689981708F021E0822FDF91A6
:10195000CF911F910F910895FF920F931F93CF93F3
:10196000DF938091DE04882309F08FC08091DC042E
:101970009091DD0401969093DD048093DC048091C6
:10198000DC049091DD04892B79F52091520530918A
:10199000530580915405909155059093530580937C
:1019A000520530935505209354058091DB048F5FD9
:1019B0008093DB04E0915205F091530580818823E8
:1019C00019F48FEF9FEF0CC0E0915205F091530591
:1019D0000580F681E02D0680F781E02D82819381DC
:1019E0009093A2008093A1002091DC043091DD044B
:1019F0008091A1009091A2002817390708F44AC0ED
:101A000089E0F82EE0915205F091530580818823FA
:101A100039F48FEF9FEF9093A2008093A1003AC01A
:101A2000E0915205F09153050580F681E02DC681C5
:101A3000D7812A813B818091DC049091DD0482175B
:101A4000930728F43093A2002093A10023C08E01B5
:101A50000E5F1F4FC8010E948A078C899D89892BC0
:101A600021F0CE010C960E948A079E898091DF04A6
:101A7000891710F49093DF049F9DC00111248A51AF
:101A80009B4FB8010E942C07BDCF8091E0048F5F6F
:101A90008093E004DF91CF911F910F91FF90089503
:101AA000CF93DF93EC01E091D804F091D9049383B4
:101AB00082838091DC049091DD04C817D90768F413
:101AC00080915405909155056091D8047091D90486
:101AD0006E5F7F4F0E94550717C08091520590910D
:101AE00053056091D8047091D9046E5F7F4F0E94B6
:101AF00055078091A1009091A200C817D90720F442
:101B0000D093A200C093A100DF91CF9108950F93CD
:101B10001F938B016091D8047091D904645F7F4F4B
:101B20000E9455078091D8049091D90402960E9492
:101B30008A078091DC049091DD04800F911F0E9440
:101B4000500D1F910F910895CF92DF92FF920F9346
:101B50001F93DF93CF930F92CDB7DEB70FB6F894F4
:101B60000F928091DE0481508093DE048091DE0428
:101B7000882309F058C08091E104882309F453C0F8
:101B8000198299E0F92E2DC0E0915B05F0915C057A
:101B9000C680D780C6010C960E948A0786010E5F18
:101BA0001F4FC8010E948A07D60156969C918091CA
:101BB000DF04891710F49093DF049F9DC001112466
:101BC0008A519B4FB8010E942C07E091D804F091F4
:101BD000D904D60156969C918689981710F0B1E0E9
:101BE000B98380915605882379F68091E004882393
:101BF00041F40CC00E94AC0C8091E00481508093B1
:101C0000E0048091E0048823A9F707C0E981E1306E
:101C100021F08091DA04813031F41092DA040E94CC
:101C20008E0881E001C080E00F900FBE0F90CF9131
:101C3000DF911F910F91FF90DF90CF9008950F9348
:101C40001F93CF93DF93EC010097C9F08091DE04DE
:101C50008F5F8093DE040091DC041091DD0480919D
:101C6000D8049091D90402960E948A07CE01800F71
:101C7000911F0E94500D0E94A40D882311F40E9410
:101C80008E08DF91CF911F910F910895CF93DF932D
:101C9000FC01EB018091DE048F5F8093DE042081E4
:101CA0003181C20FD31F8091DC049091DD04821733
:101CB000930728F4C217D30728F020E00CC0C217FE
:101CC000D30740F08091DC049091DD0420E08C1774
:101CD0009D0708F421E0D183C083222351F0809135
:101CE000D8049091D90402960E948A07CE010E94DE
:101CF000500D0E94A40D882311F40E948E08DF91DC
:101D0000CF910895EF92FF920F931F93CF93DF939C
:101D10008C010FB6F8940F928091D8049091D90459
:101D20000817190719F400E010E003C001151105A8
:101D300029F4C091D804D091D90401C0E80122E06F
:101D4000E22EF12CEC0EFD1EC7010E948A078C8941
:101D50009D89892B21F0CE010C960E948A078FE580
:101D600095E0B7010E942C078091E3048F5F809378
:101D7000E3048091E4048F5F8093E4040F900FBE2E
:101D80008091E204882321F0012B11F40E948E0837
:101D9000DF91CF911F910F91FF90EF900895F894EC
:101DA0001092E2040E942F0808950F931F938091D0
:101DB000E3048823E1F38091DE048F5F8093DE04E7
:101DC00010915F050E94A40D112389F30FB6F894BA
:101DD0000F92E0916405F091650506811781C801B5
:101DE00002960E948A078091E10481508093E10469
:101DF0008091E30481508093E3040F900FBEF801BB
:101E00008789908D0E94E106C8010E94E106CFCF2C
:101E10002F923F924F925F927F928F929F92AF92BA
:101E2000BF92CF92DF92EF92FF920F931F93CF93C7
:101E3000DF931C014B015A012901702EE60181E25A
:101E400090E00E94F1066C01009771F0209721F458
:101E5000C5010E94F106EC01F601D08FC78B2097D7
:101E600029F4C6010E94E1068FEFBFC0CE0165EAEA
:101E700070E0A5010E94AD110894A108B108F60117
:101E8000C789D08DCA0DDB1DC6014996B40148E053
:101E900050E00E94B411F60110A2072DF9E0F715E9
:101EA00008F409E0F601068B42E0A42EB12CAC0C3C
:101EB000BD1CC5010E942807C6010C960E94280778
:101EC000F601D186C0868AE090E0801B9109958753
:101ED0008487D38AC28ACE01B101A2010E94B207CF
:101EE000F60191838083E114F10419F0F701D182A6
:101EF000C0820FB6F8940F928091E1048F5F8093B7
:101F0000E1048091D8049091D904892B79F5D0927D
:101F1000D904C092D8048091E1048130B1F5C6EEB5
:101F2000D4E0CE010E9418072996F5E0C034DF07FF
:101F3000C1F730E4E32E35E0F32EC7010E94180705
:101F400009E415E0C8010E94180786E595E00E94A3
:101F500018078FE595E00E941807F0925305E0926C
:101F6000520510935505009354050FC08091E2046B
:101F7000882359F4E091D804F091D9048689781621
:101F800020F0D092D904C092D804F60196898091AD
:101F9000E504891710F49093E5048091E4048F5FC1
:101FA0008093E404F60196898091DF04891710F488
:101FB0009093DF04F601868929E0829FC0011124F5
:101FC0008A519B4FB5010E942C070F900FBE809144
:101FD000E204882349F0E091D804F091D90486897D
:101FE000871510F40E948E0881E0DF91CF911F9138
:101FF0000F91FF90EF90DF90CF90BF90AF909F90A8
:102000008F907F905F904F903F902F900895AF9268
:10201000BF92CF92DF92EF92FF920F9385ED9EE0F9
:1020200060E670E040E550E020E030E000E0EE24C3
:10203000FF24CC24DD24AA24BB240E94080F813075
:1020400049F4F8948093E2041092DD041092DC04C9
:102050000E94FA070F91FF90EF90DF90CF90BF9012
:10206000AF900895AF92BF92CF92DF92EF92FF921E
:102070000F9380E060E040E00E943D018AE391E13F
:1020800060E070E048EC50E020E030E009E0EE2451
:10209000FF24CC24DD24AA24BB240E94080F85EE53
:1020A00090E160E070E048EC50E020E030E005E0D6
:1020B0000E94080F82E890E160E070E048EC50E098
:1020C00020E030E003E00E94080F81E060E00E9421
:1020D000690B9093700580936F05009739F060E06D
:1020E00070E040E050E020E00E94C50A0E94071026
:1020F00080E090E00F91FF90EF90DF90CF90BF9045
:10210000AF900895CF93DF93C4EFD1E080916F0536
:102110009091700560E070E04FEF5FEF20E00E946B
:10212000F909813009F04CC0809168058130E9F5EA
:1021300080E00E941E0390936E0580936D059C01C4
:102140002C9FC0012D9F900D3C9F900D11246FEF8F
:1021500073E00E946E1180E090E0609369057093D7
:102160006A0580936B0590936C0581E00E948A0458
:1021700083EA90E00E940C0480E06CE00E94C004BE
:102180006091690570916A0580916B0590916C056D
:102190000E94210481E06EE00E94C00483E40E945A
:1021A000D60380E060E00E94C00480916F059091AA
:1021B000700560E070E040E050E020E00E94C50A59
:1021C00084E690E00E941F0EA1CF1F9380916F05BF
:1021D0009091700560E070E04FEF5FEF20E00E94AB
:1021E000F90981E00E948A0485E690E00E940C04CF
:1021F00080916F059091700560E070E040E050E0E4
:1022000020E00E94C50A14E20E942C038093AF00D4
:10221000843259F180916F059091700560E070E013
:102220004FEF5FEF20E00E94F9098091AF0081330A
:1022300031F481E0809368051093AF000BC081E01A
:102240000E948A0485E090E00E941F0E86E790E0DD
:102250000E940C0480916F059091700560E070E021
:1022600040E050E020E00E94C50A82E390E00E9436
:102270001F0ECACF80916F059091700560E070E0ED
:1022800040E050E020E00E94C50A80916F059091E7
:10229000700560E070E04FEF5FEF20E00E94F90909
:1022A0000E94D0040E9485030E94160383E890E0F8
:1022B0000E940C0480ED97E00E941F0E80916F0534
:1022C0009091700560E070E040E050E020E00E94F6
:1022D000C50A80E090E00E94820ECCCFAA1BBB1BF7
:1022E00051E107C0AA1FBB1FA617B70710F0A61B16
:1022F000B70B881F991F5A95A9F780959095BC0137
:10230000CD010895A1E21A2EAA1BBB1BFD010DC031
:10231000AA1FBB1FEE1FFF1FA217B307E407F50795
:1023200020F0A21BB30BE40BF50B661F771F881F71
:10233000991F1A9469F760957095809590959B0107
:10234000AC01BD01CF010895FB01DC0102C0019089
:102350000D9241505040D8F70895DC0101C06D93B3
:1023600041505040E0F70895FB01DC0141505040DE
:1023700048F001900D920020C9F701C01D92415014
:0A2380005040E0F70895F894FFCFF5
:10238A0049444C4500454E544552283129464F523E
:10239A0020414443210057726F6E6720496E707561
:1023AA0074210077656C636F6D6520686F6D6521B8
:1023BA00003734312A3235383033363923414243F3
:1023CA0044FFFF4144432052454144494E473A2481
:00000001FF
